:10000000000001204965000081650000ED1A000034
:1000100085650000F91A0000FF1A000000000000CA
:100020000000000000000000000000008B650000E0
:100030008D650000000000008F65000091650000E4
:1000400093650000936500009365000093650000D0
:1000500093650000936500009365000093650000C0
:1000600093650000936500009365000093650000B0
:10007000936500006D8F000093650000936500009C
:100080009365000093650000936500009365000090
:100090009365000093650000936500009365000080
:1000A0009365000093650000936500009365000070
:1000B0009365000093650000000000000000000050
:1000C0009365000093650000936500009365000050
:1000D00093650000936500009365000010B5054C22
:1000E000237833B9044B13B10448AFF300800123E4
:1000F000237010BDA00200200000000018BD000009
:1001000008B5034B1BB103490348AFF3008008BD9A
:1001100000000000A402002018BD0000154B002BB9
:1001200008BF134B9D46A3F5803A00218B460F462E
:100130001348144A121A09F0ADFE0F4B002B00D0E1
:1001400098470E4B002B00D0984700200021040058
:100150000D000D48002802D00C4802F0B7F909F054
:10016000CDFD2000290002F085FC02F0ACF900BFB3
:100170000000080000000120000000002D2A0000FF
:10018000A0020020100B0020CD2400000000000081
:1001900010B5044600F0A8FE204610BD2DE9F04F32
:1001A000C5B0054601920C460222002109F07EFCF2
:1001B000284609F015FD0746002800F0D880013FC9
:1001C0006C4809F0BBFF39466B4802F06FFE3946B8
:1001D0000022284609F06AFC012211462B460DF147
:1001E0000F0009F053FC9DF80F10644802F05EFE0A
:1001F00000221146284609F059FC4FF480795FFA35
:1002000087FA97FBF9F94FF000085FFA89FB02279C
:100210000DF11009D8451ADA2B464FF480720121EE
:10022000484609F033FCB8F1000F04D199F800609A
:1002300099F801305E4019F8073001375E40B7F594
:10024000807FF6B2F7D108F101080027E2E7BAF1A2
:10025000000F0ED004AF2B4652460121384609F05C
:1002600015FC0023534504D0FA5C5640F6B2013326
:10027000F8E79DF80F20B2421AD0019B9BB9314696
:100280003F48404C02F012FE3F4809F057FF20461D
:1002900006F048FD0028FAD140F6B83000F07EF8AC
:1002A00045B0BDE8F08F394809F048FF0020F7E776
:1002B00031463748DFF8DC9002F0F8FD00221146A5
:1002C000284609F0F3FB334800F0EAF9314800F022
:1002D000E2F9804602F0CAFA214607462D4800F0AE
:1002E000DCF9002600EB040BB246424600213846FA
:1002F00009F0D0FD2B4642460121384609F0C6FBE5
:1003000000282BDDBAF1000F08D12146484600F045
:10031000C4F921460246484600F070FA2246434698
:1003200039464846444400F0EDF9A34513D8214628
:10033000484600F0B2F94FF0000A00EB040B01361A
:100340000323B6FBF3F303EB43039E42CDD12846D0
:1003500009F046FCC9E74FF0010AF0E70E4802F049
:10036000A5FD384602F096FA0A4800F0B3F90120DC
:1003700096E700BFB0AA0000C7AA0000E4AA0000E8
:1003800001AB0000BC0200203DAB000083AB0000CD
:10039000AAAB0000C0020020BCAB0000F8B50546C7
:1003A0001E481F4F1F4E09F0C9FE1E4800F0A6FD53
:1003B0000024AC4208DA384606F0B4FC20B93046D6
:1003C00000F00DFE0446F4E7164800F0CCFD154899
:1003D00000F014FEAC4205DA134809F0AFFE002528
:1003E0002846F8BD114809F0A9FE1149114809F045
:1003F000C9FA044668B1104809F0A0FE01224FF482
:1004000080312046FFF7CAFE0546204609F002F972
:10041000E6E70A4809F092FE2546E1E7CCAB00008A
:10042000BC020020E8040020DDAB000030AC00007E
:1004300044AC000047AC000059AC000070AC0000B8
:1004400010B509230446144A4FF4E0214FF48030DC
:1004500009F006FD50B1114809F070FE104809F08E
:100460006DFE4FF4803001F041FC10BD0D4809F0E5
:1004700065FE7CB90C480D4C09F060FE204606F084
:1004800051FC0028FAD140F6B830FFF787FF08B1D9
:100490000748E4E70020E8E732B400008EAC000033
:1004A000A7AC0000BDAC00003DAB0000BC020020CA
:1004B000DDAC000038B5114809F040FE1049114884
:1004C00009F060FA054688B100224FF48031FFF749
:1004D00065FE0446284609F09DF80A4801F0AEFF83
:1004E0005CB10020BDE83840FFF7AABF064809F01C
:1004F00025FE4FF4803001F0F9FB38BD50AA000012
:1005000044AC000066AA00007AAA000030B51B4A7D
:100510001B4D1C4C85B00523CDE900320D210C2369
:100520000E22284602F0C8FD22461749284601F04F
:10053000C8FF164D16494FF40073CDE9013340232F
:1005400000930022284605F0A5FC224611492846C2
:1005500001F0B7FF104D114800230322142103704E
:1005600000F0D0FD284600F06CFD0D4922462846DB
:1005700005B0BDE8304001F0A4BF00BF005A6202E0
:1005800070030020E000002019060000C8020020CF
:100590001DB90000095E0000E8040020BC02002034
:1005A0009101000008B51649164805F0A9FB68B18D
:1005B000154809F0C3FD1249124805F0F9FC28B1AD
:1005C000124809F0BBFD6FF0010008BD104806F0AD
:1005D000A9FB90B90F4809F0B1FD40F6B830FFF71C
:1005E000DDFE10B10120FFF72BFF064805F0F0FB00
:1005F000034802F019FF0020E7E7FFF75BFFF4E78D
:1006000070030020C8020020F8AC000012AD00000A
:10061000BC0200201FAD000038B50446054B44F86D
:10062000043B054602F000FF204600F00FFB284681
:1006300038BD00BF04B6000010B50446FFF7ECFF5C
:1006400020464FF4BC7102F023F9204610BD000093
:10065000024608B552F8043B2BB903681BB9026087
:100660001346184608BD9342FBD08B22014902482D
:1006700001F08EFB3BAD00006EAD0000036801226F
:100680001B6900211847036800221B69114618479F
:100690006FF01500704706F071BA06F05FBA0000FF
:1006A00038B505460A48FFF7D3FF284606F0D0F9CB
:1006B000044650B9284606F061FA02F0D7F868609F
:1006C0000348FFF7C5FF204638BD4FF0FF34F7E77A
:1006D0000005002038B505460948FFF7B9FF284650
:1006E00006F0D4F9003018BF01204442686808B110
:1006F00002F0D0F80248FFF7ABFF204638BD00BF3C
:10070000000500202DE9F74F154699460746884613
:1007100006F034FA0646384606F018FA824638469D
:1007200006F02EFA8346384606F02CFAB5FBF6F3AF
:1007300006FB13540190002C5BD1B8F1000F58D088
:1007400005EB0903DA44534553D82B48FFF780FFE4
:100750002346B9F1000F43D0002B3FD1294638463C
:1007600006F0FCF9B5FBF0F400FB1454041B4C45F7
:1007700028BF4C4618F0030F01D1B44226D2B44230
:1007800028BF344622464146786809F05EFBB442F1
:1007900005D278680199321B204409F07BFB7B6805
:1007A0000093B3464FF0100A5B46009A294638463C
:1007B00006F092F9034620B1BAF1010AF4D14FF0E4
:1007C000FF33A9EB04092544A044C2E7B4FBF6F4C7
:1007D00006FB04FB5C46CDF80080E3E74FF0FF33F7
:1007E00005480093FFF734FF009B184603B0BDE8AF
:1007F000F08F4FF0FF33F8E7000500202DE9F041BE
:100800000D461646074606F0A1F90446384606F09E
:10081000B7F92044AC19A04204D24FF0FF3420466F
:10082000BDE8F08119D81548FFF712FF00240EB378
:10083000F4B94FF010082946384606F029F9044665
:1008400020B1B8F10108F6D14FF0FF3429463846FF
:1008500006F084F9361A0544E9E72146384606F0E1
:100860007DF9B4FBF0F303FB10400028DBD0D4E7A4
:100870004FF0FF340148FFF7EBFED0E70005002002
:1008800010B504220649044609F0D0FA28B9637964
:10089000012B02D1A079013010BD4FF0FF30FBE7F2
:1008A000D4AD00008378012B24D14268130EFF2BB6
:1008B0000ED10378812B0DD0842B12D043B922F0B6
:1008C0007F420A60C2789200502AA8BF50224A6034
:1008D0000020704722F07F428A61C3789B00CB6181
:1008E000F6E722F07F42C1F8D020C3789B00C1F820
:1008F000D430EDE74FF0FF307047282981BF90F8E2
:10090000280003110120984098BF4FF48070704771
:100910004B681C2BF0B524D9012301F1B00401F17F
:10092000C0064FF0FF379C4644F8047B027F0CFA68
:1009300002F2012AE2600CD9457F44F8045C8D6D17
:10094000AA4200D305B98A6591F84C201A4381F870
:100950004C205B00B442DBB200F10200E4D1002085
:1009600006E040780861FF284FF0FF3018BF0020F4
:10097000F0BDF0B504460D46D2E902018D4208BF34
:10098000844211D2116A79B101290BD06032002062
:10099000814209DDF2E80267AF4208BFA64202D2F7
:1009A0000130F5E70020F0BD4FF0FF30FBE72DE907
:1009B000F047DDF820A0093305460AEBC30C0320FD
:1009C00000260824D31795F800E01EEA040F15D07E
:1009D0000AEB8006D6F8A8608E420ADADCE90089C4
:1009E000B8EB020869EB030900274F4508BF4645ED
:1009F0000AD32EEA040E85F800E0064610F1FF3017
:100A00004FEA5404DFD23046BDE8F0874368013333
:100A1000DB080020C1E90230704783785B075ABFCA
:100A200090F90700C0174FF0FF307047C16810B54C
:100A300029B94FF4FD720349034801F0A9F9BDE853
:100A400010400847D9AD000008AE00002DE9F04F76
:100A50008BB004AF4FF0000A4FF0080B08AE87E8E8
:100A60000F00CDE902BA0096002200233846FFF7B6
:100A7000DDFF50452FDB3046FFF702FF002827DB64
:100A8000431C4FEAE07141F100044FEAC4095546A6
:100A90005C46DA4649EA53794FEAC308AB464D450E
:100AA00008BF444513D0CDE902AB009622462B4641
:100AB0003846FFF7BBFF00280DDB14993046FFF7DF
:100AC000F1FE002804DB083445F10005E7E70020CB
:100AD0000BB0BDE8F08F4FF0FF30F9E72DE9F043A0
:100AE00089B004AF109D87E80F00D5E90201AC6919
:100AF000686210F1FF3241F1FF33C5E91823002C81
:100B00005CD0EC69002C59D0204601F0AFFE013CCE
:100B1000064602460023002C03DB02F8013B013CA1
:100B2000F9E7EA690096CDE902233846AA6900236D
:100B3000FFF77CFF00284BDB337803F00303032B24
:100B400002D07378002B43D0B3785A1C0A2A2A6249
:100B50003EDC06F1080404EB8304301D05F1240E8D
:100B600005F14C0C05F160070F210023026810F815
:100B7000048B22F0FF0202F580724EF8042B013A3A
:100B800008F00F0813440CF8018B4FEAE37901EAEF
:100B9000080184429846E7E8028903F10103E5D1A0
:100BA0000023AB65012212EA01040BD0303300248C
:100BB00055F82330AB65304601F06CFE204609B095
:100BC000BDE8F08301335200042BD2B2EBD1F2E73F
:100BD0004FF0FF34EFE730B4446801466CB1D0E920
:100BE000032303F0010502B93DB15B10E0180DB11C
:100BF000E3589A58896830BC104730BC704713B529
:100C0000446890F9343090F9332090F9321090F91B
:100C100035000090201D06F075FE02B010BD0000EA
:100C2000426808B5D36C02F150011BB9D36C0BB903
:100C3000D16408BD8B42FCD08B220249024801F0EE
:100C4000A7F800BF3BAD00006EAD000010B50A4B29
:100C500003600446FFF7E4FF63685A6DA24208BFD1
:100C60000022204608BF5A65FFF7DAFFE06908B1A5
:100C700000F0E4FC204610BD68AE000010B504464C
:100C8000FFF7E4FF2046542101F002FE204610BD8C
:100C900038B5054601F070F9074B1B68002B08DDDD
:100CA000064C2078A84218BF002401F07BF92046AA
:100CB00038BD0024F9E700BF6005002008050020CA
:100CC000084A08B51368002B04DDAF22064907481F
:100CD00001F05EF8591C1160054A582000FB032002
:100CE00008BD00BF6005002014AE000035AE000056
:100CF000080500200023082210B5C0E90E2380F863
:100D0000303080F831300C4B03640446FF23A0F8E8
:100D1000443001F031F994F84C00FFF7B9FF6060FE
:100D200028B9FFF7CDFF94F84C3060600370BDE840
:100D3000104001F037B900BF40420F0038B50446FB
:100D4000124820601248A0602046002584F8343004
:100D5000FF2384F8321084F8332084F83530E460BF
:100D6000C4E90455A561E561E562012200F8365F3A
:100D70009DF9101000F0C8F9064BA56420462365C4
:100D800084F84C50FFF7B6FF204638BD68AE00002F
:100D9000D70B0000FF0B000010B543685B6D83426A
:100DA00004460FD0036D984760680023D4E90E1203
:100DB000043006F001FE6068216C043006F024FE69
:100DC00063685C6510BD036870B504461B690D4619
:100DD000984760682564436DA34209D129460430D1
:100DE00006F012FE236820465B69BDE87040184794
:100DF0002046FFF7D1FFF5E790F93620531C09D0C4
:100E0000012393404FF0A04211B1C2F8083570475A
:100E1000C2F80C35704738B5036804461B6998471B
:100E200094F945506B1C84F8453045B92046FFF7CE
:100E3000B3FF29462046BDE83840FFF7DDBF38BD87
:100E400010B590F84530013B5BB2044680F8453060
:100E500013B90121FFF7D0FF236820465B69BDE885
:100E60001040184738B504460D46FFF7D4FF6068B8
:100E70002946043006F002FE05462046FFF7E0FF53
:100E8000284638BDF7B504461F460D461646FFF7FF
:100E9000C2FF94F8443060680193089B0093294690
:100EA0003B463246043006F01DFE05462046FFF75D
:100EB000C7FF284603B0F0BD0020704700290CBFD3
:100EC0006FF0180000207047012070476FF0150088
:100ED00070476FF0150070471120704784B001A86B
:100EE00080E80E0004B07047437D10B504461BB186
:100EF000037D0BB101F010FA204610BD13B5044676
:100F000001A800F0A3FB637D53B9237D0BB101F071
:100F1000EDF9206900F056FBC4E900010123637577
:100F200001A800F099FB02B010BD73B504460D4650
:100F300001A800F08BFB00230022C4E900236B7D95
:100F40005BB1286900F03EFBD5E90023821A61EB12
:100F5000030315461E46C4E9005601A800F07CFBB9
:100F6000204602B070BD2DE9104885B0044603A8A4
:100F700000F06CFB21466846FFF7D7FFD4E9022357
:100F8000DDE9000112EB000B43EB010C637DC4E9CA
:100F900002BC1BB1237D0BB101F0BEF900236375C8
:100FA00003A800F059FB05B0BDE810887FB50446E2
:100FB0000D4603A800F04AFB29466846FFF7B5FF37
:100FC000D5E90201DDE90023151843EB010603A86A
:100FD000C4E9005600F040FB204604B070BD07B5E0
:100FE00001466846FFF7E2FF4FF47A720023DDE91D
:100FF000000109F03DFB03B05DF804FB13B50446A6
:1010000001A800F023FB206900F0DCFA0022002395
:10101000C4E90001C4E9022301A800F01DFB02B0ED
:1010200010BDD0B50023002600270446C0E90067A4
:10103000C0E90267016102754375FFF7DFFF2046D3
:10104000D0BD10B5044600F0E5FA01220146204665
:10105000FFF7E7FF204610BD03681B681847000034
:1010600010B50446074B236000220023C4E9022385
:1010700000230846A161C4E90433034900F018FACB
:10108000204610BD88AE00005910000007B5009042
:1010900000F10801806900F04AFA03B05DF804FB32
:1010A00000F10801806900F072BA70B50E4604467E
:1010B000154605F013FE013609D02046002105F043
:1010C00073FE29462046BDE8704005F04BBE70BD5A
:1010D00090F9002008B5531C04D121220749084883
:1010E00000F056FE012393404FF0A04211B1C2F828
:1010F000083508BDC2F80C35FBE700BF8CAE000018
:10110000C7AE0000FFF7D1BF70B50E4604461546C6
:1011100005F0E4FD01360DD029462046FFF7D8FF43
:101120002046012105F040FE20460021BDE8704028
:1011300005F018BE70BD0022FFF7E6BF00487047FB
:10114000E0AE0000024B1B680BB102481847704725
:10115000E4000020E0AE00002DE9F34DD0F804805B
:1011600098F83A300446002B64D103685B689847CE
:1011700063681B6A83425DD0D8F82010D8F80C3021
:10118000C8F82000411AD8F808603748194086424C
:101190000C464FF0000546D098F83B30A1FB0012FA
:1011A0000027D8E90AABCDE90012002B45D0009901
:1011B00021FA03F40199C3F1200CA3F1200201FAF2
:1011C0000CFC21FA02F221FA03F5DDE9000144EA00
:1011D0000C04144310EB0A00A3F1200C41EB0B01AB
:1011E000C3F1200205FA03FB04FA0CFC24FA02F214
:1011F00004FA03FA4BEA0C0B4BEA020BB0EB0A02BF
:1012000061EB0B03BB4208BFB24202D2C8E90A231A
:1012100009E0013445F10005921B63EB070310461A
:101220001946C8E90A01D8E90C01021941EB050386
:10123000C8E90C2302B0BDE8F08D32463B46DDE93B
:10124000000109F065FA044612EB0A000D4643EB73
:101250000B01B94208BFB042E3D3013445F10005A8
:10126000821B61EB0703D1E740420F00824206D99F
:101270008A420BD9884294BF0020012070478842DF
:1012800006D98A428CBF0020012070470120704798
:10129000002070472DE9F14F476897F83A3006462D
:1012A000002B6DD197F83930002B69D1FFF754FF2F
:1012B00075686968002966D0D5E90C23D1E9000179
:1012C0008B4208BF824205D333685B6901B0BDE839
:1012D000F04F1847801A61EB030182468B46D5E92F
:1012E0000601594508BF50452C6906D3A8682B490B
:1012F00088420FD1544528BF54462A6A3B6A144499
:10130000EA681440A3422DD140F21B12244925481B
:1013100000F03EFD95F83B10F9B1A1F1200CC1F1B0
:1013200020000BFA01F90AFA0CFC49EA0C092AFA26
:1013300000F049EA00090AFA01F8DFF86CA0174A40
:101340001AEB08004FF0000B4BEB0901002309F0EA
:10135000DFF9844228BF0446CFE7A0FB0A8900FBDF
:101360000B99EAE7336820461B69984733685B6846
:10137000984722460146386AFFF778FF0028A3D134
:1013800001B0BDE8F08F3B69386AFA6818443368E9
:101390001B69104001B0BDE8F04F184740420F00F4
:1013A00061AF000088AF00003F420F002DE9F04F11
:1013B000436893F8382085B00446002A6AD193F830
:1013C0003A30002B66D103681B6898472368DB69B5
:1013D0009847D0F80080B8F1000F07D12F49304866
:1013E000CDF800804346424600F0E2FE1F23012272
:1013F00002FA03F188455FFA83FA02D0013BF7D184
:101400009A4645682B1F1C2B05D9002300931A46CA
:1014100024492548E8E74FF0070918F1FF3009FA99
:1014200003F9224E4FF0000343F1FF314246C6FB61
:10143000090109F06DF96368226803934FF0000B0E
:10144000C3E900BB52680F4606469047039B012242
:10145000186202FA05F5636800210020013DC3E926
:101460000A01C3E90C01C3F80880204683F83BA0B9
:10147000C3E90359C3E9066783F839B083F83AB082
:1014800083F83820FFF768FE204605B0BDE8F04F2E
:10149000FFF700BF05B0BDE8F08F00BF0CAF000044
:1014A0000E01048025AF00000501048040420F00BA
:1014B00038B505460C46FFF779FF00F05DFD6B6817
:1014C0001C60BDE8384000F06DBD70B5044600F00A
:1014D00053FD2368DB689847636893F83A201AB194
:1014E000BDE8704000F05EBD012283F839206368DA
:1014F0005B68A3B12046FFF72FFE65686E68D5E9EB
:101500000C01D6E90023994208BF904207D3F36843
:101510006B602B68002BEAD0B0689847E7E76368F8
:10152000002283F839202046FFF7B4FED8E72DE9E2
:10153000F84305460C4616461F46DDF8208000F0AD
:101540001BFD2846FFF708FE6A68C4F80880C4E956
:1015500000675368002133B9E36069B954602846D5
:10156000FFF798FE0FE0D3E900894F4508BF4645D5
:10157000F2D31946DB68EEE7D2E90C23BB4208BF81
:10158000B242CC60EBD2BDE8F84300F00BBD38B5F9
:1015900005460C4600F0F0FC6A685368A34209D186
:1015A000DB6853602846FFF775FEBDE8384000F061
:1015B000F9BC1346002BF8D0DA68A242F9D1E268F0
:1015C000DA60F2E738B50446FFF7F0FE00F0D4FC2D
:1015D0002046FFF7C1FD6368D3E90C4500F0E2FC4B
:1015E0002046294638BD08B5FFF7ECFF08BD0000CE
:1015F000024B00221A7006F073BB00BFB00A002035
:1016000008B506F0D9FA024B01221A7008BD00BFD6
:10161000B00A002000487047ACAF0000024B1B68C6
:101620000BB1024818477047E8000020ACAF00003B
:1016300091F90C2091F9041005F0BABE024B1B6819
:1016400003B11847704700BFE805002010B50446F5
:1016500000F092FC204610BD10B5044600F0A2FC3C
:10166000204610BD007B704738B50B4B036000234C
:1016700004460D46C0E9013102730848FEF7E8FF51
:1016800045B1074B1A6862601C600448FEF7E0FF32
:10169000204638BD6560F8E7E8AF0000F00500209F
:1016A000EC05002010B5124B036004461148FEF70C
:1016B000CFFFA3682BB1104A1368A34212D163680D
:1016C00013600E4B0B481A68A24204BF00221A6036
:1016D000FEF7BEFF237B13B9201F01F0DDF8204683
:1016E00010BD13465A68A242FBD162685A60E8E70F
:1016F000E8AF0000F0050020EC050020F805002010
:1017000010B50446FFF7CEFF2046102101F0C0F8C7
:10171000204610BDF8B5074614480D46FEF798FF61
:10172000134B1C6894B1A66876B1304608F028FEC9
:10173000A84209D12A463946304608F077FB18B945
:101740000A48FEF785FF0FE06468EBE7072DF7D145
:101750002A463946074808F069FB0028F0D10348BB
:10176000FEF776FF044B1C682046F8BDF00500200C
:10177000EC050020D8AF0000F805002070B50E463B
:1017800000250446C0E900550E49304608F000FE29
:1017900030442060294623681A782F2A07D1013364
:1017A000236051B92A220849084800F0F1FA002ABA
:1017B000F7D0013301312360EDE7FFF7ABFF606045
:1017C000204670BDF0AF0000F2AF000019B000007D
:1017D00000687047406808B520B1FFF743FF431E1B
:1017E0005842584108BD10B50446FFF7F3FF10B149
:1017F000606800B1043810BD406808B520B1FFF73B
:1018000031FFB0FA80F0400908BD10B50446FFF77B
:10181000F3FF10B1606800B1043810BD40680030BB
:1018200018BF012070476FF0250070476FF025004A
:1018300070476FF02500704710B504460868FFF741
:10184000C1FEC4E90001204610BD000010B50446E9
:10185000FFF706FC20460E4B40F8203B04F1180130
:10186000FFF7EAFFD4E90823C4E90A230022002392
:10187000C4E90C230023A36384F83C3084F83D3092
:1018800084F83E3084F83F3084F84030204610BD64
:1018900058B0000038B590F83F50044625B18E226C
:1018A00009490A4800F074FAFFF7FAFB94F840304F
:1018B00084F83C5084F83D502BB184F84050BDE88A
:1018C000384000F029BD38BD5CB0000083B0000096
:1018D00010B5044601F1300000F092FAC4E90001AD
:1018E000204610BDD0E90C232DE9004812F1010B70
:1018F00043F1000CD0E90A23C0E90CBC12F57A7B55
:1019000043F1000CC0E90ABCBDE800884DF804BDF5
:10191000D0E90ABC1BF57A724CF100035DF804BBF8
:10192000FFF7B4BB73B50D46044618316846FFF7A0
:1019300083FFD5E90A23DDE90001801A61EB030189
:10194000002908BFB0F57A7F06D200220023C4E93F
:101950000023204602B070BD002908BFB0F5FA6F21
:1019600001D20122F2E7002871F1010307DA4FF4F6
:101970007A73B0FBF3F0002320606360E9E74FF473
:101980007A72002308F0C4FEC4E90001E1E7000018
:1019900091F83F302DE9F34805460C4613B991F80C
:1019A0003C6026B1E5221249124800F0F1F9684680
:1019B000FFF7B8FFDDE900BC4FF47A71A663ABFB1B
:1019C000016701FB0C77D4E90A01821941EB070397
:1019D000D4E90C01C4E90A231BEB00024CEB010320
:1019E0002846C4E90C23C5E9002302B0BDE8F0880D
:1019F0005CB000008DB000002DE9F7431F4690F861
:101A00003F300446164623B158222249224800F0AE
:101A1000BFF990F83C5065B901466846FFF7B8FF3A
:101A2000DDE90023BB4208BFB24205D3012384F89D
:101A30003D3003B0BDE8F08321466846FFF748FF1C
:101A40004FF47A73A6FB030103FB0711D4E908677F
:101A500094F8402084F83D5016EB00084FF0010345
:101A600047EB010984F83C3042B9A269126892F848
:101A700020201AB984F8403000F038FC002384F8A4
:101A80003E3042464B46204603B0BDE8F043FFF7E8
:101A9000FDBA00BF5CB0000083B00000024B4FF005
:101AA00080625A60704700BF00ED00E090F83C3063
:101AB00010B504464BB1002380F83C3090F83E301E
:101AC00013B9012380F83D3010BD90F83F30002B52
:101AD000FAD0836B01338363FFF7E0FF2046FFF703
:101AE00001FF2046FFF712FFEEE70000102300F091
:101AF00007B8202300F004B8302300F001B84023D9
:101B00009C46F0B404AE7546E80801D3EFF30986AD
:101B10000E4F0FCE0FC70FBC0FC740464946524667
:101B20005B460FC71DCE3100A60A00D304316E09F3
:101B300000D248311FC7EFF309806946EFF31486DE
:101B400063C76046014900F079F800BFB40A00207D
:101B5000F0B52C4C2C4F85B00025264654F8252096
:101B600029463846013500F0EDF90D2DF6D1A36C6C
:101B70000293636C0193236C0093D4E90E23616B91
:101B8000224C234800F0DEF92168224800F0DAF9FF
:101B9000E16AA26AA36AA06A256BE76B000CCDE933
:101BA00001570090C3F30723D2B21B4800F0CAF9D3
:101BB000A36A1D0603D5616B184800F0C3F9A36A38
:101BC000180403D5A16B164800F0BCF9F36C190793
:101BD00012D5144800F0B6F9336DDA070FD5124864
:101BE00000F0B0F9F36C5B074CBF1048104805B02B
:101BF000BDE8F04000F0A6B90E4800F0A3F90E4889
:101C0000EEE700BFB40A00203AB1000000ED00E0AA
:101C100048B1000097B10000A5B10000F4B1000088
:101C200002B2000010B200001FB200004FB200006C
:101C30005BB200003FB200002CB2000007B50546C1
:101C40000E461B4C0121D4E84F2FC4E8401FD2B2EE
:101C500062BB184800F076F9302D18D0402D1BD00B
:101C6000202D1ED11448154D00F06CF9144800F0D9
:101C700069F9FFF76DFF134800F064F90023237042
:101C80000023009332461049284600F091FA0F488D
:101C90000F4D00F057F9E9E70E480F4D00F052F9EB
:101CA000E4E70E480E4D00F04DF9DFE70025E7E7C9
:101CB000080B0020AAB00000D3B000003E01FF8056
:101CC00000B100000BB100002AB10000E2B000003A
:101CD0003F01FF80EBB000004001FF80F6B0000044
:101CE0003D01FF8008F02CB908F0DCB8F0B572B601
:101CF000234ADFF898C0002313604FF0E0221C460F
:101D0000516801F00F0101314FF0FF371E46A2006C
:101D100002F1604202F56142C2F88070C2F880713F
:101D20000022D51865440132082A85F80063F8D1ED
:101D30000134A14203F10803E9DC124B4FF02062A9
:101D40005A6040F2FA529860DA6000221E61114631
:101D50009C1801320C2A2176FAD14FF0FF325962D9
:101D60009A62094ADA621F221A63D0E9003100221E
:101D700082F314889D4682F310880847F0BD00BFA7
:101D800010E000E000ED00E0020000C000E100E033
:101D900007B50B46009201460022014800F008FA00
:101DA0004401FF8003460122D3E84F0FC3E8412FCF
:101DB000C0B20029F8D17047D0E85F3F5B18C0E897
:101DC000523F002AF8D198B27047034653E8000FFB
:101DD000401843E80002002AF8D17047D0E85F3F7E
:101DE0005B1AC0E8523F002AF8D198B27047034608
:101DF00053E8000F401A43E80002002AF8D1704768
:101E000038B5044600F0B8F8D4E9004500F0CAF847
:101E10002046294638BD000008B521220149024864
:101E2000FFF7B6FF8CAE0000C7AE000083B500F030
:101E3000A3F80B2101A8FFF77EF91E4E012404250B
:101E40004FF0A0479DF904305A1C01D1FFF7E4FF81
:101E500004FA03F3C7F80835304600F018FE9DF980
:101E60000430581CF2D004FA03F3C7F80C3530469E
:101E700000F00DFE013DE5D10F4F04254FF0A048C5
:101E80009DF90430591CE1D004FA03F3C8F8083571
:101E9000384600F0FCFD9DF904305A1CD6D004FAF7
:101EA00003F3C8F80C35384600F0F1FD013DE7D1E9
:101EB000C5E700BFF0490200801A060073B5002292
:101EC00001460446022000F0A3FB0D2600F054F862
:101ED0000022254614F8013B1BB900F063F802B05C
:101EE00070BD0A2B09D10D2A07D001220DF107017F
:101EF00002208DF8076000F08BFB012229460220AA
:101F000000F086FB14F8012CE3E7000000B5A3B055
:101F10000B460246842101A800F0DEFF832806D983
:101F2000074B1A681B79CDF883208DF8873000287D
:101F300002DD01A8FFF7C2FF23B05DF804FB00BF7C
:101F400067B200000FB407B504A951F8040B019162
:101F5000FFF7DCFF03B05DF804EB04B07047EFF36C
:101F60001080C04300F001007047EFF3058000309F
:101F700018BF01207047000008B504F059FD064A5B
:101F80001368591C04D13F2204490548FFF700FF9C
:101F90000133136008BD00BFFC0500206CB20000D7
:101FA00096B20000044A136823B1013B13600BB9D9
:101FB00004F046BD704700BFFC05002008B50B4883
:101FC000FFF7F0FE28B1FFF7D7FFBFF34F8F20BF19
:101FD000FDE7FFF7CAFF08B1FFF728FFFFF7BFFFD4
:101FE0000028F9D0012000F06EFA00BF3C06002066
:101FF0002DE9F0412E4C0E462168C1F34173032BAD
:102000000CBF4D428DB2C1F30743804617462948A5
:102010002A46FFF797FF6FF498731D44132D0FD8CE
:10202000DFE805F00A2D3033363C393F0E0E0E0E38
:102030000E0E0E0E0E0E0E42A1681F48FFF782FF15
:102040004046FFF73BFF61681C48FFF77BFF4EB13E
:102050001B48FFF733FF3046FFF730FF394619487A
:10206000FFF770FFA1681848FFF76CFF2168174859
:10207000FFF768FF1648BDE8F041FFF763BFA168AE
:102080001448DBE7A1681448D8E7A1681348D5E7EE
:10209000A1681348D2E7A1681248CFE7A1681248A7
:1020A000CCE7A1681148C9E71148FFF74BFFC7E724
:1020B00040060020C7B2000018B30000C0B3000003
:1020C000D1B30000D9B30000DDB30000F1B30000CC
:1020D0003BB400002EB300003EB300004DB300003F
:1020E00060B3000074B3000088B3000097B3000031
:1020F000ADB3000070470000F0B5254D8FB035EA54
:10210000200528BF05460E4617460021302202A8AA
:1021100007F0C0FE1F4B01952B44012B01AC039629
:1021200005D91D4B9D4202D0033B9D4229D1F36B43
:102130000293736B0893FFF71FFF184A136801336C
:10214000012B136009D126460FCE154D0FC50FCEBA
:102150000FC50FCE0FC533682B600FCC114D0FC5C7
:102160000FCC0FC50FCC0FC523682B600E4B1B681F
:10217000A5F1300043B19847FFF714FF00200FB0DE
:10218000F0BD02970894D6E7FFF7B4FFF4E700BF6D
:102190000101FF80C2FE007F4001FF800006002099
:1021A000080600204006002004060020002070479A
:1021B00080B50E461F461146084A0125D2E84F4F0A
:1021C000C2E8435FE4B23CB97246FFF795FF029A5A
:1021D00039463046FFF70CFFFFF7F0FE080B0020F2
:1021E00038B5064C23683BB9FEF7A8FF044D0146FD
:1021F0002846FFF72BFB2560206838BDC00600206D
:102200007806002008B5836823B9054B1B6893F84E
:102210003D0008BDC06898470028F6D0F9E700BF28
:10222000C0060020F7B5194D04464FF0FF366FF099
:1022300000472046FFF7E6FF30BBD4E90023BB424E
:1022400008BFB24202D02868FFF7D6FB01A8FFF70B
:10225000FDF92046FFF7D6FF98B9D4E90023BB4229
:1022600008BFB24207D100F071F801A8FFF7F4F9F6
:10227000BFF36F8FDDE72B6893F83C30002BF2D172
:10228000F3E701A8FFF7E8F903B0F0BDC0060020AE
:1022900070B50C4686B01646054620B909B1104601
:1022A000884706B070BD431C18D0FFF799FF014660
:1022B0006846FFF76DFBDDE90001421941F10003BB
:1022C000CDE90223CDE90446FFF78AFF02A8FFF714
:1022D000A9FF054B1868FFF7DDFAE2E74FF0FF3280
:1022E0006FF00043ECE700BFC006002013B5074CB9
:1022F00001212046FFF760FD034628B9009022889F
:1023000003490448FFF754FF02B010BDC406002083
:1023100055B400002301048013B5094C0121204667
:10232000FFF75CFD4FF6FF73984206D10023228829
:10233000009304490448FFF73BFF02B010BD00BF03
:10234000C406002077B400002401048008B5FFF71C
:1023500013FE064B1B889BB22BB905F031FABDE882
:102360000840FFF71FBE05F007FAF8E7C406002093
:102370006FF01C0070476FF0150070470120704728
:102380000020704770470000F8B5074E15460C4610
:102390008F18BC4205D014F8011B304605F074F9C3
:1023A000F7E72846F8BD00BF9008002038B58DB289
:1023B00015F0010405D0084805F09CF9041C18BF6D
:1023C0000124EB0605D5044805F0B4F908B144F042
:1023D0001004204638BD00BF9008002010B5044608
:1023E00007F01CFD204610BD10B50C462AB104486C
:1023F00005F00EF92070012010BD1046FCE700BF6B
:102400009008002038B5084B0360084B1B68044651
:10241000154633B90648FFF70BF92946044805F07D
:1024200077F8204638BD00BFA0B40000FC080020AB
:1024300090080020002070470020704737B5014603
:102440006846FFF79BF96846FFF7CDF9044638B9AF
:1024500007F088F8132303604FF0FF3003B030BD5E
:10246000036868461D69FFF7B3F901462046A8478F
:10247000041E04DA07F076F864420460ECE70020FA
:10248000ECE708B5012000F01EF80000074A0849F3
:1024900013681844884289BF064B10600C224FF025
:1024A000FF308CBF1A601846704700BFEC01002057
:1024B00000F000200C0B002008B508B1FFF7B6FCB7
:1024C000FEE70120704708B5FFF7F6FF01207047CF
:1024D0007047704708B5FFF7FBFF08BD08B5FFF769
:1024E000F8FF08BD08B5037803F00303012B10D0F3
:1024F000037803F00302012A0BD02AB140F29A625A
:1025000005490648FFF744FC43F00203037001202D
:1025100008BD0020FCE700BF3CB5000068B5000026
:1025200008B5037803F00302022A05D040F2A36243
:1025300004490548FFF72CFC23F0030343F0010393
:10254000037008BD3CB5000086B500003F2870B59B
:1025500004462EDC184D55F820305A1C13D10228A1
:1025600011DCFFF769FF034658B92046FFF762FF09
:10257000034630B9114E3378BFF35B8FDB0704D5C8
:102580000F4B45F82430184670BD3046FFF7AAFFC0
:102590000028F5D04FF416520A490948FFF732FFD8
:1025A0003046FFF7BDFF084A08490548FFF789FF95
:1025B000E6E70023E7E700BFEC000020C8060020A4
:1025C00054070020E8B40000E0000020852300004C
:1025D00038B50546FFF7BAFF0B4B002443F82540FA
:1025E00030B906F0BFFF092303604FF0FF3038BD5C
:1025F00003685B699847051E04DA06F0B3FF6D4275
:102600000560F2E72046F2E7EC000020FFF7E0BFAC
:1026100038B50C461546FFF799FF38B906F0A2FF0A
:10262000092303604FF0FF34204638BD036821467C
:10263000DB682A469847041EF6DA06F093FF6442E8
:102640000460EFE738B50C461546FFF77FFF38B951
:1026500006F088FF092303604FF0FF34204638BDA1
:10266000036821469B682A469847041EF6DA06F05E
:1026700079FF64420460EFE710B5FFF767FF044697
:1026800028B906F06FFF09230360204610BD0368D8
:10269000DB699847041EF8DA06F064FF64420460C0
:1026A0000024F2E72DE9F74FB2F1000906460D4686
:1026B00009DA06F057FF162303604FF0FF34204677
:1026C00003B0BDE8F08FFFF7D7FF044690B3224B6D
:1026D00009EB050213F806A000922F460024984645
:1026E0004FF00D0B009A9742A7EB050322D03A78E2
:1026F0000A2A1CD1BAF10D0F19D09C420DDA1A1B0F
:10270000291930460193FFF783FF0028019BD4DB92
:1027100004449C42D3DB08F806A001220F4930464E
:10272000FFF776FF0028C8DBC9D008F806B017F815
:1027300001ABD7E7A145C2DDA9EB04022919304658
:10274000FFF766FF0028B8DB24181FBF2D19024BC6
:1027500015F8012C9A55B2E70C070020DBAC0000FD
:10276000FFF78ABF73B5151E04460E4606DA06F05B
:10277000F9FE162303604FF0FF3017E0FFF77CFFF0
:10278000E8B1124D01220DF107012046FFF75AFF73
:102790000028F0DB0AD09DF807300D2B08D12A5D08
:1027A0000A2A2B55EED00A233370012002B070BDE7
:1027B0000A2B02D12A5D0D2AF3E72B55F4E72A46AE
:1027C00031462046FFF73EFFF0E700BFCC06002071
:1027D00038B50C461546FFF7B9FE38B906F0C2FE0B
:1027E000092303604FF0FF34204638BD03682146BB
:1027F0001B692A469847041EF6DA06F0B3FE6442C7
:102800000460EFE7FFF7E4BF38B50D46FFF79EFE23
:10281000044630B906F0A6FE092303604FF0FF30EE
:1028200038BD0368DB699847002814BF4FF4005394
:102830004FF400436B60236820469B6A98472861E9
:102840000020EDE7FFF7E0BF13B5044607F0DEFA1E
:10285000034628B90090224602490348FFF7A8FC26
:1028600002B010BD1FB500001F01018013B5044662
:1028700007F0CCFA034628B90090224602490348E3
:10288000FFF796FC02B010BD00B500001F010180EB
:1028900007F0C4BA07F0C2BA10B504460948FDF7FC
:1028A000D7FE0023084A194652F82300A04208BF69
:1028B00042F823100133402BF6D10248FDF7C8FE41
:1028C00010BD00BF4C070020EC00002010B50F48E1
:1028D000FDF7BEFE0E4B032453F824206AB10134E9
:1028E000402CF9D106F03EFE182303600748FDF79F
:1028F000AFFE4FF0FF34204610BD4FF0FF320348CB
:1029000043F82420FDF7A4FEF5E700BF4C070020A4
:10291000EC0000200EB42DE9F04185B00546FFF72C
:10292000D5FF041E13DB0023294602A80193FEF7FE
:1029300025FF02A8FEF772FF1E4D064668B906F095
:1029400011FE1323036045F824604FF0FF34204646
:1029500005B0BDE8F04103B0704702A8FEF74CFF98
:10296000074602A85FB1FEF750FF0190019B124A93
:1029700045F8243000231355104A1355E7E7FEF7B6
:1029800032FF06460028DAD0036802A8D3F8088090
:10299000FEF71EFF0B9B024601A93046C0470646C4
:1029A0000028E3D006F0DEFD7642066045F824708C
:1029B000CBE700BFEC000020CC0600200C07002075
:1029C00070B50E461549044607F0B6FC054618B921
:1029D000FFF7BCFD284670BD1149204607F0ACFC4E
:1029E00020B90120FFF7B2FD0125F3E70D4920468C
:1029F00007F0A2FC20B90220FFF7A8FD0225E9E7B5
:102A00002378402B02D1D4F80150E3E726F40041AB
:102A10002046BDE87040FFF77DBF00BFC5B5000090
:102A2000CCB50000BDB500007047704708B5094B34
:102A3000094A1A60094B9B1A094A1360094B0A4A52
:102A40001A600A4B9B1A0A4A136004F08BFAFFF7CC
:102A5000ECFF08BD6407002000F00020000001200A
:102A6000600700205C070020100B002000F0002011
:102A70005807002008B5FFF7D7FFFFF797FBBDE821
:102A80000840FDF78FBD00221146FFF701BC70B56D
:102A90000446FEF7BFFD0646FEF7A5FD0546304697
:102AA000FEF7A1FD401BA042F9D370BD70B51446DE
:102AB0001268002A0D4604990ADB6FF00046B24204
:102AC00006D031B1184606F089FF431C05D12060BD
:102AD00070BD10B1AA4238BF83542368013323600C
:102AE000F6E72DE9F04F89B0DDE9126756EA0703F2
:102AF00081468A469346DDF8508007D13023CDF8D1
:102B0000488009B0BDE8F04FFFF7D0BF02AD1822F2
:102B10000021284607F0BEF90024304639460A2233
:102B2000002307F0F5FD30322A55002330463946A0
:102B30000A2207F0EDFD06460F4656EA070304F1A8
:102B40000104EAD1013C5A462B5DCDF80080514684
:102B50004846FFF7ABFF002CF4D109B0BDE8F08F79
:102B60002DE9F74F1D4B1E4E9146DDE90CBA9DF83D
:102B70003C200746002A08BF1E468846072500233A
:102B8000EC00C4F12001A4F120020AFA01F12BFAB1
:102B900004F40C432AFA02F21443E4B20BB904B968
:102BA000ADB9220904F00F0403B93AB1B35C0E9A2F
:102BB000009241464A463846FFF778FF0E9A335D49
:102BC000009241464A463846FFF770FF012315F14F
:102BD000FF35D5D203B0BDE8F08F00BFD4B50000FB
:102BE000E4B500002DE9F04F89B01C4600230646ED
:102BF0000D46DDF848A007931746BAB1994215DB98
:102C00000CBF012301F1FF3505934FF0000917F8C0
:102C100009307BB956B1059B43B9079BAB4295BFC1
:102C20009DF814209DF81430F2547355079809B09C
:102C3000BDE8F08F252B40F02B8109F10103FA5CF0
:102C4000203AD2B2102A06D8974921FA02F2D207C6
:102C500048BF09F10203F95C2A2907EB030217D1E7
:102C600001330434FA5C2E2A59D1591C7A18795C44
:102C70002A2914D00020D31B12F8011B30395FFA27
:102C800081FCBCF1090F0DD80A2303FB0010F2E709
:102C9000D31B12F8011B30390929F9D9E2E7206862
:102CA00002330434FA5C682A3CD1FA185278682A54
:102CB00014BF1121722101F00302D318049317F8F5
:102CC0000380B8F1640F02D0B8F1690F54D18229A2
:102CD00042D1073424F00704D4E9008904F1080B39
:102CE000B8F1000F79F100030BDACDF800A02D2325
:102CF00007AA29463046FFF7D9FED8F1000869EB4C
:102D00004909CDE90089CDF808A007AA294630462F
:102D1000FFF7E7FE049B5C4603F1010977E76FF0DC
:102D20000040BFE76C2A06D1FA1852786C2A14BF0B
:102D300021218221BFE76A2A08D07A2A08D0742A82
:102D400008D04C2A0CBF61210021B4E73121B2E741
:102D50004121B0E75121AEE7112904F1040B2368AA
:102D600007D0722914BF98464FFA83F84FEAE879E2
:102D7000B6E70FFA83F8F9E7B8F1750F03D008F05A
:102D8000DF03582B2FD182290ED1073424F00704FA
:102D9000D4E9002304F1080BB8F1750F15D1CDF873
:102DA00008A0CDE90023B0E7512904F1040B226803
:102DB00009D0722903D0112903D00023ECE7D2B245
:102DC000FBE792B2F9E7D317E6E7A8F158004142D2
:102DD0004141CDE902A1CDE90023294607AA3046A9
:102DE000FFF7BEFE96E7B8F1630F0AD12378CDF85E
:102DF00000A007AA2946304604F1040BFFF756FE4F
:102E000088E7B8F1730F17D1D4F8008004F1040BF0
:102E100008EB000498F80030002B3FF47BAFA0458E
:102E20003FF478AFCDF800A007AA29463046FFF757
:102E30003DFE08F10108EDE7B8F1700F18D130231D
:102E400007AA2946304604F1040B2468CDF800A0F7
:102E5000FFF72CFE782307AACDF800A029463046BC
:102E6000FFF724FE0123CDE902A32246E317B2E7D0
:102E70002523CDF800A007AA29463046FFF716FE05
:102E8000049BB8F1250F18BF4B46A346049341E7B6
:102E9000CDF800A007AA29463046FFF707FEA34653
:102EA000CDF8109036E700BF092801000FB41FB518
:102EB0000849096806AB896853F8042B0091002083
:102EC0006FF000410393FFF78DFE05B05DF804EB52
:102ED00004B070470402002013B500240094FFF7EB
:102EE00081FE02B010BDFFF7CEBD0020704700206C
:102EF0007047012000217047D0F8C00000217047C2
:102F000090F8743113B1D0E91C0170470020002102
:102F10007047FF207047000000487047F4B500007C
:102F200010B504461946104604F16802FDF721FD6C
:102F300003465A1CD4F8C00009D02344012293F858
:102F4000B4100023114204D04A3354F82300002166
:102F500010BD01335200042B52B2F3D1F7E72DE933
:102F6000D04F9B4603689B6A92460446DDE9088978
:102F7000984702460B465046594607F0C9FB134393
:102F800002D00020BDE8D08F236820469B6A984776
:102F900002460B464046494607F0BAFB1343F0D1C0
:102FA00023681AEB08069B6B20464BEB09079847F2
:102FB000B94208BFB0422CBF01200020E2E70168FF
:102FC0002DE9F041096B14461D4606468847024626
:102FD0000B462046294607F09BFB134302D00020F6
:102FE000BDE8F081DDE90623A71845EB0308336847
:102FF00017F1FF32196B304648F1FF33884702461C
:103000000B463846414607F083FB1343E7D133684C
:1030100030469B6B9847414508BFB8422CBF012002
:103020000020DDE72DE9F0031646D0E9011204681F
:10303000069D1F465310DDE90889D20704EB030003
:1030400048BFE358324648BF59580695CDE908892C
:103050003B46BDE8F00308472DE9D04F9B46036887
:103060005B6A92460446DDE90889984702460B46AA
:103070005046594607F04CFB134302D00020BDE8F0
:10308000D08F236820465B6A984702460B4640462D
:10309000494607F03DFB1343F0D123681AEB0806BD
:1030A0009B6B20464BEB09079847B94208BFB042DB
:1030B0002CBF01200020E2E737B5054604461B4837
:1030C00045F8040B4FF000008DF804009DF918003E
:1030D00000902846FDF732FE0821C4F86411C4F8B8
:1030E0006C1100200021C4E91C014FF0FF310023C6
:1030F0000322A1670121C4F888102846C4E91733C8
:10310000C4F85031C4F8703184F87431C4F86021C7
:10311000C4F86831C4F8C03084F8B430A2650799A7
:10312000FDF751FE204603B030BD00BF04B60000DD
:1031300084B02DE9F04198B004461FA880E80E0045
:10314000239D22992A686E68002329B94FF4FD72E5
:103150001B491C48FEF71CFECDE9026304AE009635
:103160008847074638B14FF0FF37384618B0BDE8FA
:10317000F04104B0704704F1680841463046FDF75D
:103180004CFC0028EFDB41463046FDF73FFC0028B1
:10319000E9DB03220223C4E916232023236669689E
:1031A0003046FDF7AAFB2946C4F850013046FDF72A
:1031B000AFFB0028D7DB2B692366C4F86471D4E722
:1031C000D9AD000008AE000010B586B004466846D0
:1031D00080E80C0006A800E90C00064BE3600346FB
:1031E00043F80C1D93E8070084E80700204606B06A
:1031F00010BD00BF253000002DE9F84F051DD0F8A7
:103200006C310C9F04468B46284616464FEAD3087D
:10321000DDE90AA9FDF7FFFD59462846FDF722FE24
:10322000D4F8604104F10054013CE400002C11DBAF
:10323000C4F12002A4F120032AFA04F109FA02F2EF
:10324000114329FA03F31943C9B22846FDF70AFED0
:10325000083CEBE7002444450AD1013E3744BE4216
:103260000CD000212846FDF7FDFD06F8010FF6E71A
:1032700000212846FDF7F6FD0134ECE72846FDF76E
:10328000DFFD0020BDE8F88FF0B51F4690F87431DF
:1032900085B004460D461646E3B11048FDF7D8F94F
:1032A000D4F86431C4F86C31DDE90A23CDE9006754
:1032B000CDE90223A16D2A462046FFF79DFFD4F8F1
:1032C0006831C4F86C3105460448FDF7C1F9284659
:1032D00005B0F0BD6FF47A65F9E700BF680700201C
:1032E00030B585B0DDE90A450821C0F86C11CDE99B
:1032F0000023CDE90245089A5A21FFF77DFF05B06A
:1033000030BD2DE9F84F051DD0F86C71DDF8308027
:1033100004468B4628461646DDE90AA9FDF77BFDE3
:1033200059462846FDF79EFDD4F8604104F100544B
:10333000013CFF08E400002C11DBC4F12002A4F1E1
:1033400020032AFA04F109FA02F2114329FA03F3DD
:103350001943C9B22846FDF785FD083CEBE7002478
:10336000BC420BD108F1FF38741E4644B4420BD066
:1033700014F8011F2846FDF775FDF7E700212846E0
:10338000FDF770FD0134EBE72846FDF759FD0020FD
:10339000BDE8F88F2DE9F743051D8946D0F86C810B
:1033A0000446284616461F46FDF735FD4946284681
:1033B000FDF758FD7B1C08BFB6F1FF3F24D0D4F8C1
:1033C000604104F10054013CE400002C0ADA4FEAA9
:1033D000D8080024444517D200212846FDF742FDB5
:1033E0000134F7E7C4F12002A4F1200326FA04F126
:1033F00007FA02F2114327FA03F31943C9B2284628
:10340000FDF730FD083CE0E70D9B00930A99DDE9EC
:103410000B232846FDF736FD2846FDF711FD002059
:1034200003B0BDE8F08300007FB506461248FDF703
:103430000FF996F874513DB9C6F870510E48FDF772
:1034400007F9284604B070BDD6F87041013CC6F8B3
:1034500070417CB9CDE90244CDE900444FF0FF3220
:103460004FF0FF3304213046FFF794FF86F8744194
:103470000546E3E70025E1E768070020DFB5074ED2
:1034800000240027CDE90244CDE9004432403B400E
:10349000FFF780FF204604B0D0BD00BF00F0FFFF63
:1034A0002DE9F04186B0064642F210744FF0010853
:1034B00005AF00250120FFF716FD4FF0FF33CDE9E2
:1034C0000278CDE900554FF0FF3205213046FFF775
:1034D00061FF9DF81430DB0705D5013CEAD1204699
:1034E00006B0BDE8F0810120FAE730B587B006AA42
:1034F000002322F8043D0121CDE90221CDE900336A
:103500004FF0FF324FF0FF3305210546FFF742FF32
:1035100000BBCDE90200CDE900004FF0FF324FF0D3
:10352000FF3366212846FFF735FF98B9CDE9020041
:10353000CDE900004FF0FF324FF0FF3399212846CC
:10354000FFF728FF003018BF012044422846FFF74C
:10355000A7FF08B94FF0FF34204607B030BD30B5A3
:10356000002387B0CDE90233CDE900334FF0FF32BD
:103570004FF0FF3306210546FFF70CFF044618B154
:103580004FF0FF3007B030BD2846FFF789FF002815
:10359000F6D00123039305ABCDE9014300944FF02E
:1035A000FF324FF0FF3305212846ADF81440FFF7F6
:1035B000F1FE0028E4D19DF8140080F0020040F3F1
:1035C0004000DFE72DE9F04F9B4690F8743185B05D
:1035D00004460D469246002B41D0DFF8A080DDE97D
:1035E0000E23134341D0D4F8509100274A463B465E
:1035F0005046594607F08CF8DDE90E018018594114
:10360000B94208BF48451D4834BFDDF83890A9EBE2
:103610000209FDF71DF82046FFF7A1FF38BB002780
:103620004E46CDE900ABCDE902672A46E16D204662
:10363000FFF767FEDDE90E231AEB090A4BEB070BD8
:10364000B2EB090263EB070320464D44CDE90E239C
:10365000FFF726FF80B14046FCF7FAFFBFE76FF4A3
:103660007A64204605B0BDE8F08F0024F9E7044CE9
:103670000248FCF7EDFFF4E7024CF9E76807002089
:103680005CF0FFFF5DF0FFFF2DE9F04F1F4690F863
:10369000743187B004461646DDE91089002B00F02E
:1036A000918000F1680239463046FDF762F9B0F1C9
:1036B000000A454603DA484807B0BDE8F08F04EB3E
:1036C0000A0318EB060293F8B4308DF8173049EB73
:1036D000070390469946D4E91C234B4508BF424551
:1036E000E9D323683246196B20463B468847024699
:1036F0000B463046394607F00BF81343DBD12368FD
:1037000018F1FF32196B204649F1FF338847024612
:103710000B464046494606F0FBFF1343CBD104F16C
:103720008003DFF8B8900393002D4EDD039B0093D8
:103730003246534629460DF11700FDF738F904EBE0
:1037400080000023D0F82881D0F818B142463046D6
:10375000394606F0DDFFAB189845484694BFA8EB04
:103760000208A846FCF774FF2046FFF7F8FE70BB7E
:103770002A46EB17CDE90023594632463B46204600
:10378000FFF77CFEA5EB080516EB080647F10007DE
:10379000002D0FDD04EBCA03D3E93223BB4208BF7F
:1037A000B2423FBF0AF1010A04EB0A0393F8B430B6
:1037B0008DF817302046FFF773FE40B14846FCF7FE
:1037C00047FFB1E76FF47A6076E7002074E70348BB
:1037D000FCF73EFF02486FE75BF0FFFF6807002041
:1037E0005DF0FFFF30B587B00323039305AB029371
:1037F0000023CDE900334FF0FF324FF0FF339F211C
:103800000546FFF7C7FD0446A0B99DF81430BF2B4D
:103810000ED12846FFF7A3FECDE90244CDE90044CE
:103820004FF0FF324FF0FF3398212846FFF7B2FDEB
:10383000204601E04FF0FF3007B030BD2DE9F043E6
:10384000044697B04548FCF703FF94F874310BB970
:10385000C4F87031D4F870610136012EC4F870617B
:1038600007D000253D48FCF7F3FE284617B0BDE819
:10387000F0832046FFF739FE013002D16FF47A65FC
:10388000F0E72046FFF7AEFF0028F7DB2046FFF702
:1038900007FE00285FD0DFF8D0900025CDE9049521
:1038A0000AAF04AB0CCB2146C4E91A55C4E9205534
:1038B000384604F16808FFF787FCCDF8008097E8E8
:1038C0000F00FDF7C3F8A84201DA254DCAE7CDE99C
:1038D00006950EAF06AB0CCB21463846FFF774FCBD
:1038E000119BCDF80480009397E80E002046FFF767
:1038F0001FFC0028E9DBCDE9089512AF08AB0CCB23
:1039000021463846FFF760FCCDF8008097E80F00AD
:10391000FDF7E4F80028D8DBD4F86831C4F86C313E
:10392000D4E91C2300214FF08070994208BF9042D7
:1039300084F8746195D24FF0FF33CDE90255CDE99B
:1039400000554FF0FF32B7212046FFF723FD042337
:10395000C4F8603186E7034D84E700BF68070020A4
:103960005EF0FFFF5DF0FFFFE132000010B5054B98
:1039700003602C33044640F8043FFDF793FE2046D5
:1039800010BD00BF58B60000A0F10400EEE700BF74
:1039900010B50446FFF7EAFF20461421FEF778FF32
:1039A000204610BDA0F10400F2E703681A6AC36A5A
:1039B000D31A1944B1FBF2F302FB1311036B8B42D0
:1039C00010B50BD94C09C26B012301F01F0103FA9A
:1039D00001F152F824300B4342F82430002010BD8E
:1039E0000368013304D04068431C58425841704773
:1039F0000120704710B50B6804689C4209D04068EC
:103A00004A68904205D0944203D0181A18BF01208A
:103A100010BD0020FCE703689B6A10B5044613B98B
:103A2000C06906F0FBF92368DB6A13B9A06A06F0E7
:103A3000F5F923681B6B23B9E06BBDE8104006F075
:103A4000EDB910BD2DE9F74F984603680C9C1B6A31
:103A50000E9D434583460F46914629D8122235498B
:103A60003548FEF795F9DBF80000B9F1000F23D0D7
:103A7000D9F8003098451FD1D9F80410A1421BD8BD
:103A8000836901EB030A544516D2AAEB040AAA453E
:103A9000D9F8083028BFAA46611A194452460D9831
:103AA00006F0D3F90D9B53440D935444A5EB0A053E
:103AB000002DD8D1284639E03A68436990450ED1A7
:103AC00079688C420BD301EB030A544507D2AAEB69
:103AD000040AAA4528BFAA46611ABB68DDE7416807
:103AE000B4FBF3F203FB12428C46A2B99D4212D3FF
:103AF000B5FBF3FA03FB1A5AA5EB0A0600960D9BD9
:103B0000224641466546A84780B90D9B33440D9334
:103B100034445546CCE7A21AC7F800807A60009377
:103B2000BB6841466646B0470028C1D003B0BDE837
:103B3000F08F00BFA8B60000DDB600001FB5069CE0
:103B40000092CDE9013400220B4600F11401FFF789
:103B500079FF04B010BD10B50C468269A068FF2142
:103B600006F098F94FF0FF33236010BD38B50446D6
:103B70008B6A21600D46ABB1C361EB6AF3B1A362FE
:103B8000284604F12001FFF7E6FF4FF0FF332568D8
:103B90006361686AC30618D02D492E4840F61202A8
:103BA000FEF7F6F8486906F031F9E0610028E4D143
:103BB0002046FFF730FF6FF00B0048E0A86906F0E1
:103BC00025F9A0620028DBD1F2E720B940F6130204
:103BD0001F492148E4E72B6B63B1E363D5E9051383
:103BE000B3FBF1F201FB12325AB140F61E02184942
:103BF0001A48D5E7C00806F009F9E0630028EDD1BE
:103C0000D6E7EA69B2FBF3F003FB102020B140F6DF
:103C10001F020F491248C3E74FF0FF31A2F108031A
:103C2000B1FBF3F30B44B3FA83F3C3F12003B2EB1C
:103C3000830F04D240F6230205490A48B0E7C4E9DD
:103C40000111C4E9030084F8400084F8410038BD44
:103C5000A8B6000072B7000090B70000A8B7000037
:103C6000D7B7000007B80000F8B5C5690E68083D71
:103C70000F46B6FBF5F080B1013806F061FD841CFB
:103C8000A6EB8404B4FBF5F4204606F059FD04FBD2
:103C90001565A5EB80053D602046F8BD2DE9F04F88
:103CA00089B09B46DDE91237884608A9013B0646E4
:103CB00041F80C3D00689146FFF7D6FF0DF1180A58
:103CC000054659461498B847024610BB0DB305F097
:103CD0000104C4F10204A300CDE901A300904A4607
:103CE0005B4641463046FFF7ADFE024688B904F117
:103CF000FF3B934506DC08AB03EB8B0B2D1B5BF8FE
:103D000008BCDEE706991498B84701220028F0D0D5
:103D10000246104609B0BDE8F08F2DE9F04F87B09C
:103D2000DDE9104506460F46904625444FF001094F
:103D30000DF1170AA3EB040BAC4201D1012011E0F5
:103D40000BEB04030093CDE901A943460022394659
:103D50003046FFF777FE28B914F8013B9DF817208D
:103D60009A42E9D007B0BDE8F08FF7B50C46096874
:103D70004B1C0646174621D000688369009385686E
:103D8000D4E90123A847054620B937B92146306850
:103D9000FFF7E1FE284603B0F0BD33689B6901934D
:103DA000A36800933946D4E900233046FFF7B5FFF6
:103DB000002805DBEAD16FF03305EBE70025E9E7E2
:103DC0000546E7E72DE9F04F994603681B6A85B081
:103DD0004B45074688469346DDE90E56DDF840A080
:103DE00031D83A493A489C22FDF7D2FFD8F8003042
:103DF0004B452FD1D8F80400A8422BD83A689469D3
:103E00000444AC4226D9641BD8F80830544528BF76
:103E10005446281A22463146184406F016F8AAEBF2
:103E2000040303933B689A692544B5FBF2F302FB54
:103E3000135326442BB95A4641463846FFF795FF9F
:103E400028B9DDF80CA0BAF1000FCFD1504605B06B
:103E5000BDE8F08F013303D0B7221C491D48C3E7EA
:103E600038688269B5FBF2F302FB135333BB52454A
:103E700024D8BAFBF2F402FB14A3AAEB030ACDF890
:103E800000A0039383682A461C4649463346A04750
:103E90000028DCD1BBF1000F02D156445544D0E7D5
:103EA000CDE9006A2B464A4659463846FFF735FFAA
:103EB0000028CCDBF1D16FF03300C8E7EB1AC8F86B
:103EC0000090C8F80430CDF80CA0BAE7A8B60000FE
:103ED000DDB600008CB600002DE9F04F89B0064633
:103EE00089460592139F43B94FF0FF323A60149A06
:103EF0000020136009B0BDE8F08F08A9013B41F82C
:103F0000043D0068FFF7B0FE12A905463068FFF7D0
:103F1000ABFE4FF0040A80460DF1140BA845059B3B
:103F200002D33B60129BE2E7A5EB0804B4FA84F4E9
:103F300095FAA5F2B2FA82F2C4F11F04944228BFA6
:103F40001446A2000092CDE901BA0022494630464B
:103F5000FFF778FD059B0028CCD1012B03D93268EF
:103F6000126A934205D94FF48F6204490448FDF761
:103F70000FFF012303FA04F42D1BCFE7A8B60000BE
:103F8000FBB600002DE9F04786B005468946144689
:103F900000F11408D7184FF0010A0DF11706A742D7
:103FA00003D1002006B0BDE8F0870094CDE9016A96
:103FB0004B46002241462846FFF744FD01340028C5
:103FC000F0D1012231460E9801F042FFE7E72DE9DA
:103FD000F04F8DB013680693002553680793804611
:103FE0000E462F460DF1180B08AC4FF0100A5BF887
:103FF0002590CDF800A02346002249464046FFF711
:104000009DFD68B110F1340F05D13DB1002F0CBFFB
:104010006FF0330000200DB0BDE8F08F0125E6E71A
:1040200027B1F269089B9B1A002BEEDB099B23F05A
:104030000043132BE9D9D8F80020D2699342E4D881
:104040000CAB4FF0FF3243F81C2D214618461022CE
:10405000039301F0FDFE099A039B009322F00042B6
:10406000A2F11003494610224046FFF78BFF0028BB
:10407000C8D1059B002BC8D10CAA85F0010302EB27
:10408000830306F11C0753F8183CC6F80490C6E9F0
:10409000023A94E80F0087E80F000127B5E72DE901
:1040A000F34106460C46154601F124074FF010086F
:1040B000216AE26821F0004302F10C00043B9842BF
:1040C0001BD80C23009361682B1D3046FFF736FD8B
:1040D000C0B96B79A979E2682A6004330B44E979A5
:1040E0000B441344E3606B79AA7904331344EA79EF
:1040F0001344A2691344A36104E0002905DB2A608C
:104100006FF0010002B0BDE8F0813A46214630462A
:10411000FFF75DFF0028F5D1A369C4F80C801433C4
:10412000A361C5E770B5054692B004300E46FFF7AF
:1041300057FC68BB0190012301AA07A928460293F6
:10414000FFF745FF044618B910A8FFF749FC10B166
:10415000204612B070BD10AA07A92846FFF737FF06
:1041600038B903AA07A92846FFF799FF18B1831C9D
:10417000EAD00446ECE79DF91030002BF1DB082271
:10418000314605A805F052FE0028EAD10124DFE7F8
:104190000024DDE72DE9F84314461D4600220123E3
:1041A000C4E909230746884604F1240605F10809F5
:1041B0003046FFF715FC08B100200DE032462146DD
:1041C0003846FFF704FF38B92A4621463846FFF73C
:1041D00066FF18B1831CEBD0BDE8F8832B7903F0A0
:1041E0007003202BF0D141464846FFF703FC00281E
:1041F000EAD10120F0E7F7B5054604300F46164630
:10420000FFF7EEFB10B1002003B0F0BD00900123DA
:104210006A46314628460193FFF7D9FE0028F3D1BC
:1042200006F124042046FFF7DBFB0028EBD13946DA
:104230002046FFF7DFFB38B1224631462846FFF71C
:10424000C6FE0028EED0DFE70120DDE72DE9F04FC4
:1042500087B01F68049340F622035360436893605D
:10426000DFF834B18368039105461446D36059469C
:10427000384606F08DF807EB00088246594640465E
:1042800006F06CF80128814608EB000605D117F806
:104290000A302E2B0AD13746E9E7022806D102461A
:1042A0003C49404605F0C2FD0028F4D037464FF0A7
:1042B000010A5946304606F06BF806445946304626
:1042C00006F04CF8034690B102280CD10246059046
:1042D0003049304605F0AAFD059B20B9BAF1010A24
:1042E00003D1B71CC3E70AF1010A1E44E1E798F8BD
:1042F0000000002842D0049BC3F800802379222BC1
:1043000044D104F10806324603992846FFF75FFEC0
:10431000002833D105F1140A224603992846FFF7F5
:10432000BEFE58BB237903F07F03112B01D0222B53
:10433000F2D1E3794B45EFD123686279043313441A
:10434000A279CDE900891344039A51465268284660
:10435000FFF7E3FC002811DBDED095F84130002B9D
:1043600085D194F90430002B81DA31462846FFF7D5
:10437000D9FE002805D001DB6FF0010007B0BDE8D1
:10438000F08F237903F07F03237170E76FF0130040
:10439000F4E700BF0FAD0000F0AF000030B587B00C
:1043A00006AB054643F8142D42684A6082688A606D
:1043B00002AA0C46FFF74AFFA0B99DF80C30222B49
:1043C00012D104AA21462846FFF701FE50B96368BE
:1043D0002361A36863610E23A3611023E3602B694B
:1043E00023602C6107B030BD6FF01300FAE703695A
:1043F00000F110021BB18B42186802D1106000203E
:1044000070471A460346F5E770B50D46144686B068
:1044100006464FF484720021204605F03BFDAB694F
:104420000E2B0CD12046222300F8083B274905F02B
:104430008DFFAB690133AB61012006B070BD0F2B5E
:1044400005D12046222300F8083B2149EFE702AAC4
:1044500029463046FFF723FE18B1821C08BF002012
:10446000EBE79DF80C3003F07F02112A01D0222ADD
:10447000EDD11B060CD504A93046FFF753FE0028EA
:10448000DBDBE4D19DF80C3003F07F038DF80C30BA
:104490009DF80C302370112B08BF059B029A08BFB2
:1044A00063609DF80D309DF80E1004321A449DF89B
:1044B0000F3000930A4404F1080369683046FFF79F
:1044C0003DFB002808BF0120B7E700BF10AD00008A
:1044D0000FAD00008869704710B501F110020C465D
:1044E000FFF775FD38B9236963606369A3600E2324
:1044F000A3611023E36010BD2DE9F04107460C468F
:104500001546FFF7E9FF064640B9A56104F1240806
:10451000226A22F00043AB4203D3E5603046BDE897
:10452000F081002AA5EB030508DA42462146384609
:10453000FFF74DFD0028EBD00646EFE76FF01506BC
:10454000ECE7086A7047CB6948699B0303D50B6A9F
:10455000984238BF1846704770B594B014AB1446F3
:1045600043F8441D05AA09A90646FFF76FFE054654
:10457000C0B901464FF48472204605F08BFC9DF8CB
:1045800018302370112B04BF089B6360311D07A8EE
:10459000FFF730FA04F10803054630B90B49184615
:1045A00005F0D4FE284614B070BD059A9DF8191088
:1045B0009DF81B00009004320A449DF81A10304602
:1045C0000A440A99FFF7BAFA0546EBE7F0AF000094
:1045D00030B599B00546FFF7C9FA044658BB2B68B9
:1045E00068631B6AAB63C5E90B000290012302AA52
:1045F0000DA928460393FFF7EAFC044600BB2023DD
:104600000093102205AB0E992846FFF797FA04464F
:10461000B0B9069B6B60079BAB6008220C490BA8E6
:1046200005F004FC044648B90A9B1A0C012A0BD178
:104630009BB2012B08D8204619B030BD6FF033046F
:104640002846FFF7E8F9F6E76FF01504F8E700BF32
:1046500053B8000008B5FFF7DEF9002008BD2DE9CA
:10466000F043064697B004300F469046FFF7B8F97E
:10467000002840F08280012305900693059940466A
:10468000B847044610BB06994046B8470446E8B907
:1046900005AA0BA93046FFF79AFC0446B0B90C25D1
:1046A000139B0E9A23F0004302F10C01043B994244
:1046B00010D9149B059305A8159B0693FFF790F955
:1046C0000028DBD0F56806F1140975BB204617B049
:1046D000BDE8F083009508AB0C993046FFF72EFA41
:1046E0000246002847D19DF821309DF8221004335E
:1046F0000B449DF823100B440E990B440E939DF828
:10470000203003F07003102BCAD10A9B002BC7D0B6
:104710000093CDE90178099B06F114013046FFF7BB
:10472000BDFA0028BCD00446D0E7EB69DA0312D406
:10473000EB699B030DD52B6A5BB1CDE90178009342
:104740006B6A05F12C0249463046FFF7A7FA0028AC
:10475000E9D12D68B9E76B69002BE9D0CDE9017883
:1047600000932B6905F12C0249463046FFF796FA73
:104770000028DDD0D7E70446A8E70024A6E700001C
:10478000F8B52D4E04460D460127226BD4E90D13D2
:1047900091421ED1002B4BD02068E16AD0F820C096
:1047A0000A44B2FBFCF10CFB1122E262426A9A421B
:1047B00094BF2263236300216163D208E06B05F09C
:1047C00069FB224631462046FFF749FF0028DCD02E
:1047D00025E0481C6063013BD4F83CC0A363480952
:1047E00001F01F035CF8200007FA03F30342CDD168
:1047F000E36A194423681A6AB1FBF2F302FB13114E
:104800002960256B0121636BAB420FD05A0903F07D
:104810001F005CF8222001FA00F0104000D1F8BD22
:1048200001336363A36B013BA363ECE70020F6E76E
:104830006FF01B00F3E700BFAB39000073B50C4607
:1048400004310646FFF79CFF0546F0B904F1080164
:104850003046FFF795FF0546B8B90423009302469A
:1048600004F11C0361683046FFF768F910B110F1DC
:10487000340F0DD1E3690133E36114224FF0FF33AC
:10488000C4E90823A3621023E360284602B070BD88
:104890000546FAE72DE9F04F044687B00E4600F1D1
:1048A000140A05A92046FFF76BFF054648B92068A2
:1048B0000599C3689847054600283BD010F1340F8E
:1048C000EFD0284607B0BDE8F08F0DF11307CDF803
:1048D0000890CDE90087736A5A4651462046FFF793
:1048E000B1F870B9CDE90179CDF80080059B524649
:1048F00004F120012046FFF765FA20B110F1340FD2
:10490000CFD00546DDE708F10108B36A4345DCD89E
:104910002368A16A9A69706B05F097FA236AF362BB
:10492000636A336304F120012068FFF714F9059BE3
:104930007362C6E7804606F12C0B4FF00109E4E7ED
:104940002DE9F04F9A468DB0CB69059203F0030232
:10495000012A05460C4600F039815E0314D4E6694D
:1049600032051AD4276A17EB0A0F00F1328116F4C8
:10497000003618D0D046E369B8F1000F26D123F4F1
:104980000023E361524604E000F02CF902460028BF
:10499000E5D010460DB0BDE8F08F6269216A8A4209
:1049A00088BF2262DEE763699F42E3D92362236AFC
:1049B0009F42DFD90DF122020123214628468DF8BE
:1049C0002260FFF7BDFF021EF1DAE2E79B0304F16C
:1049D0002C0620D52B68A26ADB699A424DD12B6840
:1049E0001B6AAB63D4E90832CDE9092305F1140948
:1049F0000BA92846FFF7C4FE0246F8B90B99012916
:104A000003D92868036A994222D97349734840F24E
:104A10008C42FDF7BDF9236A002BE0D004F1280297
:104A20000292013B04F12402019200933146D4E941
:104A300004232846FFF750FA024620B1E36943F405
:104A40000023E361A5E731462868FFF784F8C6E74D
:104A5000C3689847024630B112F1340FEED14FF0DF
:104A6000FF332B62C4E70A9B28684BBB0B9A626238
:104A7000A362E36943F40033E361A94659F8143BA8
:104A8000DF69A36AFF1A474528BF4746059B019384
:104A9000A36A00934A460297636A31462846FFF7A5
:104AA00091F90246002800F0828010F1340FC5D140
:104AB00021462846FFF7EEFE02460028E6D0BDE775
:104AC0000CA9013B41F8083D0692FFF7CDF8296893
:104AD0000A9BC969069A01338B420A9349D1013076
:104AE00090FAA0F3B3FA83F3069303F1010B174690
:104AF000BB0007930423029309AB0193BB0000930F
:104B00004A460B9B31462846FFF75CF9099B024653
:104B10000028A1D10699B9422FD1099B012B3AD87F
:104B200040F2D3422C492E4873E70123CDE90173AB
:104B30000022CDF800B0099B49462846FEF782FFC7
:104B4000024600287FF47AAF0123CDE901734A467B
:104B5000CDF800B00B9B31462846FFF733F90246EB
:104B600000287FF479AF0BF1010B0A9B9B45DCD346
:104B70007CE793460DF12307F7E70421029109A989
:104B800001910799009128464946FEF75BFF0246CE
:104B90000028C2D052E72A68126A9342C0D801376F
:104BA000BB45A5D80B9B63624FEA8B0360E7236A82
:104BB0003B442362A36A3B44A362059B3B440593A9
:104BC0002B681B6AAB63A8EB0708D4E66FF00802FA
:104BD000DFE66FF01A02DCE6A8B6000043B700007B
:104BE000FBB60000CB695A032DE9F04144BF23F422
:104BF0008023CB610546C86944BF4FF0FF32CA62CB
:104C000010F4003090B00C462BD00F6A2C220021FB
:104C100002A805F1140805F03DF92369069398E808
:104C20000700636907930123CDE9093710AB03E956
:104C300007004FF0FF366E61226A63699A4213D310
:104C400004F12C06424631462846FFF78EF810B391
:104C500010F1340F05D121462846FFF71BFE00282E
:104C6000F0D010B0BDE8F08101230DF1070202A9D8
:104C7000284600F01CF80028F3DB01230DF10702A1
:104C800021462846FFF75CFE0028EADB6B6901330A
:104C9000D2D00D96CFE7636A2361236A6361E3692B
:104CA00023F4003343F48033C4E90737D9E72DE90F
:104CB000F04F9146CA691D4602F00303022B87B0EC
:104CC00080460C4653D0920305D4266A6269964208
:104CD00008D3002003E0FFF785FF0028F5D007B0D8
:104CE000BDE8F08F961BAE4228BF2E4604F1280384
:104CF000374604F12C0A059304F1240B0FB9304612
:104D0000EDE7E3695B0305D5D8F80030A26ADB69FB
:104D10009A4210D1059BCDE901B3236A0093514615
:104D2000D4E904234046FFF7D7F80028D7D1E36938
:104D300043F48023E361D8F80020A36AD569009387
:104D4000ED1ABD4228BF3D46CDE90195636A0022B8
:104D500051464046FEF776FE0028C0D1236A2B4418
:104D60002362A36A2B44A362A9447F1BC6E76FF0AA
:104D70000800B4E770B50D4614461E46FFF732FF33
:104D800070B93EB1012E2B6A01D11C4402E0022E03
:104D900007D01C46002CA6BF2C6220466FF01500E1
:104DA00070BD6B69F1E72DE9F041CB6903F00303B6
:104DB000012B86B005460C46164644D0FFF7C3FBD0
:104DC00090421BD92846FFF70DFFA0B906AB04F1AE
:104DD0002C0143F8040D029304F11003CDE90063A4
:104DE0002846D4E90423FFF777F820B9E369666120
:104DF00043F48033E36106B0BDE8F08126D20F6A48
:104E0000B84206D0022300222846FFF7B3FF00284D
:104E1000F1DB4FF000080AE001230DF113022146F7
:104E200028468DF81380FFF78BFD0028E3DB236A0B
:104E3000B342F1D300233A4621462846FFF79AFFB2
:104E400000EAE070D7E76FF00800D4E70020D2E76F
:104E50002DE9F041012500F1040880F84050A6B08A
:104E600006464046FEF7BCFD074600287ED10146B7
:104E70002C2205A805F00EF84FF0004328223946F1
:104E800010A80D9305F006F81A9533681B6A9F4227
:104E900002D36FF033001BE019A8FEF7A1FD002834
:104EA00064D119AA10A93046FFF791F880B90D9B7B
:104EB000002B39DB4046FEF793FD60B1199B0E9342
:104EC0001A9B0F9300231A4605A9304600F050F8AC
:104ED00026B0BDE8F08101AB1BAA0EA93046FFF752
:104EE00059F90028F4DBE9D0039A0E99049B0F9836
:104EF0008A4203D1984217D00E92E2E78242FBD158
:104F00009942F8E79DF97030002B0DDA1DA9304663
:104F1000FFF708F90028DBDB1BD01BAA10A93046DD
:104F200000F05AFA0028D3D11BAA10A93046FFF787
:104F3000B6F80028E6D0831CCAD110AD0FCD05AC61
:104F40000FC40FCD0FC495E80700013784E80700B0
:104F50009BE79DF8703003F07F038DF870301BAA3B
:104F6000034610A9304600F047F9DBE70020AFE721
:104F70002DE9F04F9FB00D460893CB690133CB610B
:104F80000B1DD1E9011493460693C5E9014113466F
:104F9000089A06460BEB02179F420FD1CDE90B4151
:104FA0000023079330686968C3689847044668B16E
:104FB00014F1340F00F0F280204607E1D8682A6A25
:104FC00002445868121A2A621033E5E70DF1780995
:104FD0004FF0FF3349F83C3D05F11C0810224146D3
:104FE000484606F1200A102700F032FF00942246BE
:104FF000CDE901876B6851463046FEF7E3FE044673
:105000000028D5D10590B846CDF824902AE0059B1C
:10501000089A934280F29E801B010BEB03095BF818
:105020000330434540F09680D9E90212099800F018
:105030000FFFD9F80C300293D9F808300022CDE9DF
:10504000007351466B683046FEF7BCFE04460028EC
:10505000AED1D9F804309844D9F80C301F44059BE0
:10506000013305932B6A23F00043043BBB42CED8A7
:1050700004230DF13C080293CDE900786B6800220F
:1050800051463046FEF79EFE0446002890D14FF070
:10509000FF330246736151463046FEF766FE044612
:1050A000002885D1306803699847044600287FF4BA
:1050B0007FAF1EAF4FF0FF3347F82C3D2B6A0097B0
:1050C00023F000430246043B69683046FEF75AFF6E
:1050D000044600287FF470AF139A0F9B9A425DD16B
:1050E000079B43B3341D2046FEF77AFC002870D19D
:1050F00043463A460BA93046FFF74CF8002865DBDB
:1051000067D06B681193AB6812934246002339460F
:10511000304600F071F8002858D121460BA8FEF760
:1051200069FC18B96B687360AB68B3603046FFF711
:105130008FFE00284AD13469002C3FF43DAF069918
:10514000201DFEF757FC18B96B686360AB68A3605D
:105150002468F1E701230093424613AB0C993046D3
:10516000FEF7ECFC044600287FF426AF012213A9C9
:10517000099800F06DFE0123029313ABCDE9007393
:1051800022466B6851463046FEF71CFE0446002856
:105190007FF40EAF08F10108013763E74FF0FF33EA
:1051A0003362002201230DA90BA8CDE90D23FEF7E0
:1051B00021FC10B96FF0330008E006993046FFF784
:1051C000DFFA0123079300283FF4ECAE1FB0BDE8DF
:1051D000F08F3A460BA93046FFF70DF80028F5DBB3
:1051E000A9D06B681C93AB681D9300231A463946FF
:1051F0003046FFF7BDFE9CE770B5154688B055F800
:10520000044BD27900940C26002BCDE9052307929C
:10521000344414BF022301236A46CDE90165039695
:105220000494FFF7A5FE08B070BD000070B592B001
:105230000C460546FFF7D6FC014600283AD1E36943
:1052400003F41023B3F5803F34D1221D1046FEF73E
:10525000C7FB78BB07A92846FEF7B9FE014648BB45
:1052600012AEE26806900C23CDE9040046F83C2D0E
:1052700008990093284604ABFEF760FC0146C8B9C4
:105280009DF81030112B05D040F213620B490C48E9
:10529000FCF77EFD236905936369069307A903461E
:1052A00032462846FFF7A8FF014618B9E36923F400
:1052B0008033E361084612B070BD00BFA8B600009D
:1052C00026B7000070B505460C46FFF7AFFFEB6848
:1052D000064605F10C021BB1A34219680CD11160FE
:1052E000A3690BB11B682BB92B685B6B13B9606B9F
:1052F00004F094FD304670BD1A460B46EBE72DE9ED
:10530000F043804695B00E461746994601F12404B5
:105310007B79B979F879326A04330B44D8F80010F4
:105320000344C96913448B4215D8043A47F8042B47
:1053300000230C21CDE90C120992CDE90A37CDE901
:105340000E391090022309AA31464046FFF710FE9D
:1053500015B0BDE8F083002A36DB35460FCD09AC29
:105360000FC40FCD0FC495E8070084E8070031464D
:105370004046FFF763FA0028EAD1129B7362139B41
:10538000B362336A3A46043B42F8043B03920C2270
:10539000CDE90130CDE90423FB790893CDE9060975
:1053A000022301AA31464046FFF7E2FD0028CFD193
:1053B000119B43F00043119373681293B3681393E6
:1053C0000246034609A9C0E7224631464046FEF799
:1053D000FEFD00289CD0BBE72DE9F0470B6A144680
:1053E00023F0004263790D46A17904330B44E1793F
:1053F0000B4414339A428CB006461DD101AA291DD4
:10540000FEF7F9FEB0F1000812DB099A002A13DA60
:105410002B6A63F00043134009936B6A0A93AB6AEB
:105420000B9300231A4601A93046FFF7A1FD8046E1
:1054300040460CB0BDE8F087236801936379A279F8
:1054400004331344E279134402930023CDE9033378
:1054500001AA012329463046FFF78AFD804600282D
:10546000E6D1F76805F1040A4FF0FF39FFB9366954
:105470000435002EDCD02946301DFEF7BBFAA0B95A
:10548000F26823689A4210D96379A17904330B44F6
:10549000E1790B44D31AF3606379A279043313449E
:1054A000E2791344B269D31AB3613668E1E7514631
:1054B000381DFEF79FFA28B9FA6823689A4203D18B
:1054C000C7E901993F68D1E7FCD96379A179043331
:1054D0000B44E1790B44D31AFB60F3E7F0B5A7B0B6
:1054E0000546FEF743FB044600287FD12B685A6A25
:1054F0000146D208E86B04F0CDFC2A68EC62D2E9E0
:10550000083210A9C5E90D439A4294BF2A632B6360
:105510002846FFF793F90446002864D11BA92846C2
:10552000FFF78CF9044600285DD1034602461BA90B
:105530002846FFF71DFD0446002854D141F22E43B2
:10554000ADF820300823ADF822008DF823302B6809
:105550001C9ED9690B9127491B6A08680C934968FE
:105560001D9A6E604FF001130D930EAB03C33423ED
:1055700018932023CDE90962CDE919620DEB0306EA
:105580001027AA600493CDE9056303AA012310A99B
:10559000284607970397FFF7EBFC20B110F1340F73
:1055A00002D004461FE001242023CDE904360693EF
:1055B00003AA012310A928460397FFF7D9FC20B1BD
:1055C00010F1340FEDD1002CEBD000220123CDE9F6
:1055D000012310A901AA2846FEF7F9FC044610B9D8
:1055E0002B681B6AAB632846FEF715FA204627B0E6
:1055F000F0BD00BF53B8000030B590F840309DB00A
:1056000005460191002B41D001AB02AA06A928460C
:10561000FEF71CFE831C044640D12F21019804F0A4
:105620007EFE002837D12B681B6AAB6311A9284680
:10563000FFF704F9044670BB0F9B1A93109B1B9352
:105640000246034611A92846FFF792FC044610BB08
:10565000019C8DF80E0040F622032046ADF80C3078
:1056600004F08EFE129A139B8DF80F00CDE90F23E4
:105670000492059302AA234606A92846FFF73FFE97
:10568000044640B92B681B6AAB6304E0FFF7E0FBFC
:1056900004460028B8D020461DB030BD002808BF01
:1056A0006FF01004F7E72DE9F0471F4692B003F0C2
:1056B0000303012B06460C460192DDF8688011D1E8
:1056C00001AB03AA07A93046FEF7C0FD0546B0B9F5
:1056D0009DF81030222B00F08880B90534D56FF08A
:1056E000100508E090F84030002BE9D1FFF7B0FB3F
:1056F00005460028E4D0284612B0BDE8F087821C99
:10570000F9D1DDF804902F21484604F008FE8246C6
:105710000028F0D1FB05EED540F611038DF81200FC
:105720004846ADF8103004F02BFE4FF0FF338DF8F3
:105730001300CDE9053A03AA4B4607A93046FFF707
:10574000DEFD05460028D6D1089B6360099BA36057
:10575000039BE360059B23610022069BC4F818802D
:1057600078056361E76122620FD44FF0FF33E36293
:10577000B8F1000F13D0D8F8003083B16363E36948
:1057800003F00303012B1FD029E013B147F4803746
:10579000E7614FF0FF320023C4E90423E5E73368F3
:1057A0005A6B32B1F36813B16FF00B05A3E7626374
:1057B000E5E7E26902F00302012A0AD1586904F020
:1057C00025FB60630028EFD0F36823600025F460B8
:1057D00091E7986904F01AFB60630028E4D004F1B3
:1057E0002C013068FEF7B7F9EEE76FF0140582E799
:1057F00013B500240094FFF756FF02B010BD00005F
:1058000010B590F840309CB00446019143B101AB13
:1058100002AA06A92046FEF719FD30B11CB010BD42
:10582000FFF716FB0028F2D0F8E79DF80C30222B8A
:1058300018D002AA06A92046FFF7CEFD0028EDD118
:105840009DF80C30222BE9D106AA12A92046FEF7BA
:10585000D2FC0028E2DB12D140F271720D490E48F1
:10586000FCF796FA04AA11A92046FEF7B0FB00281F
:10587000D4D1199B142BDCD06FF02600CEE71A9BF5
:105880000F931B9B109300231A4606A92046FFF78F
:105890006FFBC3E7A8B600005CB80000F0B590F855
:1058A0004030B1B00446CDE90021002B48D030ABE8
:1058B000019A43F8B82D0FA903AA2046FEF7C6FCAB
:1058C000002841D19DF8103063F07F038DF810302F
:1058D00003AA03460FA92046FFF78EFC002833D108
:1058E00007AF6B463A461AA92046FEF7AFFC0546BD
:1058F00060B3821C7DD12F21009804F010FD002898
:1059000077D197E80F000BAE86E80F0004AA07CA0C
:105910000CAB83E80700009F9DF83030384603F059
:105920007F038DF8303004F02BFDAB1C8DF8330075
:1059300023D13B4632461AA92046FFF7E0FC22E07D
:10594000FFF786FA0028B2D031B0F0BD9DF81030D4
:105950009DF8202003F07F039A424CD1222AD0D117
:1059600009AA25A92046FEF732FB0028ECD12D9B81
:10597000142BC6D06FF02600E6E73B4632461AA944
:105980002046FFF739FC0028DED1012384F841309E
:1059900003AA01AB0FA92046FEF758FC0028D3D17B
:1059A000064684F8410003AA0FA92046FFF714FD1C
:1059B0000028C9D10235C7D09DF82030222BC3D191
:1059C0001AAA26A92046FEF716FC0028BCDB05D142
:1059D0004FF4FB6209490A48FCF7DAF92E9B23933E
:1059E0002F9B2493324633461AA92046FFF7C0FA6C
:1059F000AAE72846A8E76FF01400A5E7A8B60000BC
:105A00005CB8000010F1340F08BF6FF0530070470E
:105A1000F7B504460068089FE66904680097002708
:105A20001D4601970023E6FB012364692946A04730
:105A300003B0F0BDF7B504460068089FE669046846
:105A4000009700271D4601970023E6FB0123A46968
:105A50002946A04703B0F0BD13B503460068DA69D4
:105A60000368009200240194DC69A1FB0223A04793
:105A700002B010BD006803681B6918470368013352
:105A800003600020704708B51430FFF7B9FEBDE889
:105A90000840FFF7B7BF08B51430FFF7FFFEBDE8B9
:105AA0000840FFF7AFBF08B51430FFF7A5FDBDE80C
:105AB0000840FFF7A7BF10B5C2B0144614306A46BD
:105AC000FEF74AFD019B23619DF80030112B0AD09F
:105AD000222B44F2FF1318BF0023636042B0BDE8DD
